:020000040800F2
:10000000E014002045010008512900080F200008D5
:1000100071280008550E0008B149000800000000D2
:10002000000000000000000000000000C9320008CD
:10003000011C000800000000032F0008DD3C000840
:100040005F0100085F0100085F0100085F01000810
:100050005F0100085F010008451C0008011D000841
:10006000131D0008251D0008371D00085F0100084A
:100070005F0100085F0100085F0100085F010008E0
:100080005F0100085F0100085F0100085F010008D0
:100090000D4800085F0100085F0100085F010008CB
:1000A0005F010008413D00085F0100085F01000892
:1000B0005D3D0008593E0008753E00085F010008DC
:1000C0005F0100085F0100085F0100085F01000890
:1000D0005F01000895430008E14300085F01000844
:1000E000591C00085F010008074600085F0100086E
:1000F000AD3E00085F0100085F0100085F010008D5
:100100005F0100085F010008913E00085F010008E0
:10011000FD420008494300085F0100085F01000834
:100120005F0100085F0100085F0100085F0100082F
:10013000DFF80CD000F02EFB00480047394E0008D5
:10014000E01400200648804706480047FEE7FEE727
:10015000FEE7FEE7FEE7FEE7FEE7FEE7FEE7FEE777
:10016000E13C000831010008D2B201E000F8012BA7
:10017000491EFBD270470022F6E710B513460A4627
:1001800004461946FFF7F0FF204610BDF0B480EAA0
:100190000102D40F4200B2EB410F02D202460846E0
:1001A00011464A0042D0C30DDDB2C1F3C752AD1AA9
:1001B000202D35DAC1F3160141F4000204B1524298
:1001C000C5F1200602FA06F12A411044B3EBD05FD4
:1001D00023D0C4B1012DA0EBC35009DCF0BC4FF01B
:1001E000004202EAC352DBB200F5000000F046BA5A
:1001F000400000F1807000EBC350A0F1807040EA35
:10020000D170490009E0490841EAC071A0EBC35030
:1002100000F50000400800EBC350F0BC00F025BA28
:100220006142012202EB4101001BF6E7F0BC70477E
:1002300081F00041AAE780F00040A7E780EA0102D0
:1002400010B502F00043400022D04A001FD0010E3A
:1002500001EB1261C0F35600C2F3560240F40000F5
:1002600042F40002A0FB022000047F39140400D0F5
:10027000401C50EA124001D44000491EC2B20C0694
:1002800004EBD010401C4008802A02D003E000207C
:1002900010BD20F00100002900DA0020184310BD35
:1002A00030B480EA010202F0004530F0004221F053
:1002B000004013D090B1C30DD40DC2F31601C0F3AA
:1002C0001600E41A41F4000140F400027D3491422A
:1002D00001D3641C00E04900002C02DA30BC00208D
:1002E00070474FF400000023914201D3891A034361
:1002F00040084FEA4101F7D151B1914202D14FF08C
:10030000004105E002D24FF0010101E06FF0010170
:1003100003EBC450284430BC00F0A7B92DE9FE4FD0
:10032000804681EA0300C00F0C46009021F0004196
:1003300023F00045B8EB0200A94105D24046214612
:1003400090461C460B46024623F00040104347D01F
:10035000270DC7F30A00C3F30A510290401A019017
:1003600040286BDAC3F3130040F4801B00989246D8
:1003700020B10023D2EB030A63EB0B0B0198594623
:10038000C0F14002504600F03FF906460D46504687
:100390005946019A00F057F910EB0800614100241A
:1003A00087EA115284EAE7731A4340D0009A62B395
:1003B000019A012A4FEA075215DC001B61EB02018A
:1003C0004FF0004202EA0752CDE90042001C41F51D
:1003D000801132462B4600F08EF903B0BDE8F08F55
:1003E00040462146F9E7001B61EB0201001C41F584
:1003F000801300185B412018A2F5001747EB03019A
:1004000040EAD570B6196D4111E06D084FEA360625
:1004100045EAC0754FEA0752001B61EB0201001C60
:1004200041F5801149084FEA300000195141324628
:100430002B4603B0BDE8F04F00F04EB90098012202
:1004400040000023D0EB020263EBE07300982146EA
:100450004FEAE074B8EB000061EB0401E9E783F0D8
:1004600000435BE781F0004158E72DE9FE4F81EA48
:10047000030404F0004421F0004100944FF0000B0D
:1004800023F0004350EA01045ED052EA03045BD03B
:10049000C3F30A54C1F30A552C44A4F2F334019473
:1004A000A0FB0254C1F3130141F48011C3F3130301
:1004B00043F4801301FB024400FB034E840A970AB5
:1004C00044EA815447EA8357A4FB076802958D0AE2
:1004D00005FB07854FEA932C04FB0C542705029D6E
:1004E0004FEA065847EA1637B5EB08056EEB070CDE
:1004F000870E920E47EA811742EA8312A7FB020198
:10050000B6EB0B0164EB00042B0D43EA0C335E18D1
:1005100044EB1C50DA465146E7FB0201C5F31304D5
:100520004FEA0B3343EA14534FEA0432019C43EA87
:100530000603A4F10C040294009CCDE900B400F081
:10054000DAF803B0BDE8F08F00200146F9E7C10FEB
:1005500080EAE0700844CA079623002100F08EB8B4
:100560000EB540F2334102910021CDE900110A4657
:100570000B4600F0C0F803B000BD00F0004220F0D0
:100580000040C10DC0F3160040F400007F2901DADD
:1005900000207047962903DCC1F19601C84001E0B4
:1005A00096398840002AF4D040427047C1F30A527D
:1005B00010B5C1F3130140F2FF3341F480119A42A8
:1005C00001DA002010BD40F233439A42A2F23342D6
:1005D00003DC524200F027F810BD904010BD00002F
:1005E000002801DBC0F10040002901DBC1F100411E
:1005F00081427047002801DBC0F10040002901DB87
:10060000C1F1004188427047202A04DB203A00FAF9
:1006100002F1002070479140C2F1200320FA03F359
:10062000194390407047202A04DB203A21FA02F057
:100630000021704721FA02F3D040C2F1200291401C
:10064000084319467047202A06DBCB17203A41FAA7
:1006500002F043EAE07306E041FA02F3D040C2F14F
:10066000200291400843194670470029A8BF7047EF
:10067000401C490008BF20F00100704710B4B0FAD8
:1006800080FC00FA0CF050EA010404BF10BC704773
:1006900049B1CCF1200421FA04F411FA0CF118BF8D
:1006A000012121430843A3EB0C01CB1D4FEA00615C
:1006B0004FEA102042BF002010BC704700EBC3502F
:1006C00010440029A4BF10BC7047401C490008BF5B
:1006D00020F0010010BC704710B5141E73F1000427
:1006E00008DA401C41F1000192185B411A4301D124
:1006F00020F0010010BD2DE9F04D92469B4611B14E
:10070000B1FA81F202E0B0FA80F220329046FFF7AF
:100710007BFF04460F4640EA0A0041EA0B015346BC
:100720005A46084313D0114653EA010019D0C8F1C4
:1007300040025046FFF777FF05460E4650465946A1
:100740004246FFF761FF084305D0012004E0204640
:100750003946BDE8F08D0020054346EAE0762C439B
:1007600037430A986305E40AA0EB08000022FD0A5B
:1007700044EA47540A3002D500200146E9E7010562
:1007800010196941DDE9084500196941BDE8F04DDE
:10079000A2E70000064C074D06E0E06840F00103C8
:1007A00094E8070098471034AC42F6D3FFF7C4FC36
:1007B000F45400081455000870B58D1810F8014B5A
:1007C00014F0030201D110F8012B231106D110F807
:1007D000013B03E010F8016B01F8016B521EF9D1E7
:1007E000ABB110F8012B04F00C048A1A0C2C03D0C6
:1007F000A2EB84129B1C08E010F8014BA2EB042230
:10080000F8E712F8014B01F8014B5B1EF9D5A9423C
:10081000D4D3002070BD21B1826842F00102826011
:1008200003E0826822F001028260704721B1826891
:1008300042F48072826003E0826822F480728260F7
:100840007047000000B591B0012140F2112002F084
:100850000FFC0121084602F0EBFB4FF4004002F0D0
:10086000DBFB3F20ADF8400000208DF8430010A9CD
:10087000444801F0D3FA444800F0F4FE43480090A5
:10088000434801900020029006200390002004902D
:10089000802005904000069080000790202008905E
:1008A0000002099000200A906946374800F080FF56
:1008B0000121354800F0CAFE00200B9001208DF880
:1008C00030008DF831004FF460200D9000200E9024
:1008D00006208DF83C000BA92C484C3800F06EF82F
:1008E000072301220A2129484C3800F08FF80723FA
:1008F00002220B2125484C3800F088F807230322F8
:100900000C2122484C3800F081F8072304220D21E5
:100910001E484C3800F07AF8072305220E211B48A8
:100920004C3800F073F8072306220F2117484C3883
:1009300000F06CF8012115484C38FFF777FF0121D2
:1009400012484C38FFF767FF10484C3800F0BAF8EF
:1009500000BF0E484C3800F027F80028F9D10B48AA
:100960004C3800F0BFF800BF08484C3800F012F8CF
:100970000028F9D1012105484C3800F0A8F811B041
:1009800000BD000000100140080002404C2401405E
:10099000900A0020014600208A6802F004020AB191
:1009A000012000E000207047014600208A6802F024
:1009B00008020AB1012000E00020704730B502466D
:1009C0000020002350680F4C20400D790C6844EA49
:1009D00005242043506090680B4C2040D1E902541C
:1009E0002C434D7944EA450420439060D06A20F4BA
:1009F00070000C7C641EE4B2234340EA0350D062D2
:100A000030BD0000FFFEF0FFFDF7F1FFF0B504463A
:100A10000D4600200021092D11DDE068A5F10A0630
:100A200006EB4607072606FA07F18843A5F10A06F2
:100A300006EB460603FA06F10843E0600CE0206985
:100A400005EB4507072606FA07F1884305EB45063F
:100A500003FA06F108432061072A0FDA606B561E7D
:100A600006EB86071F2606FA07F18843561E06EB9B
:100A7000860605FA06F10843606322E00D2A0FDAC4
:100A8000206BD61F06EB86071F2606FA07F1884360
:100A9000D61F06EB860605FA06F10843206310E030
:100AA000E06AA2F10D0606EB86071F2606FA07F19B
:100AB0008843A2F10D0606EB860605FA06F1084307
:100AC000E062F0BD816841F008018160704721B1AA
:100AD000826842F4A002826003E0826822F4A002ED
:100AE00082607047816841F00401816070470000B6
:100AF0002DE9F0478CB0002400BF0AE0594931F8D5
:100B00001400FFF72DFD584A02EBC40203C2601C1B
:100B1000C4B2062CF2DB00245AE0544800EBC400B7
:100B2000D0E900532A46524903C9FFF79EFCCDE99C
:100B30000A014E48303000EBC401D1E900532A4687
:100B40004C4903C9FFF791FCCDE9060146486038DE
:100B500000EBC400D0E900532A46474903C9FFF718
:100B600084FCCDE902014048303800EBC400D0E9F4
:100B700000733A46414903C9FFF777FC05460E4624
:100B8000394800EBC400D0E900733A463C4903C938
:100B9000FFF76BFC81462A463346FFF7BFFBCDE9E2
:100BA0000001DDE90223FFF7B9FBCDE90401DDE92E
:100BB0000623FFF754FCCDE90801DDE90A23FFF71E
:100BC0004EFC2A4A603202EBC40203C2601CC4B26B
:100BD000062CA2DB002418E02348303800EBC400C8
:100BE000D0E900202049603901EBC401C1E90020AF
:100BF0001D4800EBC400D0E900211B48303800EB51
:100C0000C400C0E90021601CC4B2062CE4DB00244F
:100C100022E01648303000EBC400D0E90010134A3F
:100C200002EBC402C2E900101048603000EBC400BF
:100C300006C80E48303000EBC40006C00B486030D8
:100C400000EBC400D0E900211046FFF7AFFC0D49CE
:100C500021F81400601CC4B2062CDADB0CB0BDE82D
:100C6000F0870000900A0020D80D0020380E0020E8
:100C70006008002058080020780800207008002034
:100C800068080020C80E002010B502460B46002060
:100C9000002100BF04E0545C0444E0B24C1CE1B20B
:100CA0009942F8DB10BD000010B50A210E48FFF78D
:100CB000EBFF0D49897A884214D10C49B1F9000043
:100CC000FFF745FC0A4908600849B1F90200FFF73F
:100CD0003EFC084908600549B1F90400FFF737FCFC
:100CE0000549086010BD0000D40E00208A080020CD
:100CF000E8080020EC080020F008002070B50A2168
:100D00002148FFF7C1FF2049897A88423AD11F491B
:100D1000B1F90000FFF71BFC05464FF08E41FFF7CD
:100D2000BFFA04461A49FFF789FA1A4908601749B9
:100D3000B1F90200FFF70BFC05464FF08E41FFF7BB
:100D4000AFFA04461249FFF779FA134908600F49D0
:100D5000B1F90400FFF7FBFB05464FF08E41FFF7AA
:100D60009FFA04460A49FFF769FA0C4908600749E7
:100D7000B1F90600FFF7EBFB04460949FFF790FACB
:100D80000849086070BD0000FC0E00209208002099
:100D900000003443C8080020CC080020D008002000
:100DA0000000C842D408002070B50A212148FFF78E
:100DB0006BFF2049897A88423AD11F49B1F9000076
:100DC000FFF7C5FB05464FF08E41FFF769FA044671
:100DD0001A49FFF733FA1A4908601749B1F90200B6
:100DE000FFF7B5FB05464FF08E41FFF759FA044671
:100DF0001249FFF723FA134908600F49B1F90400BB
:100E0000FFF7A5FB05464FF08E41FFF749FA044670
:100E10000A49FFF713FA0C4908600749B1F90600BF
:100E2000FFF795FB04460949FFF73AFA08490860BD
:100E300070BD0000240F00209A08002000003443F9
:100E4000D8080020DC080020E00800200000C8428C
:100E5000E408002000BFFEE70146CAB20B1243EAD5
:100E600002207047F0B503460C461512D6B209E0D1
:100E700013F8010B80EA05010648405C80EA06058C
:100E80000548465C2000A4F10107FCB2F0D146EA17
:100E90000520F0BD480600204807002010B50024BA
:100EA00073E147F6FF70BF490860BF48008800F053
:100EB0000F00BE4908700846007800287ED1B94866
:100EC0004438006800F44050B9490880B5484438B7
:100ED000006800F03000B7490880B2494439096819
:100EE0004BF68F7201EA020080F40050AD4944399C
:100EF0000860096848F6BF7201EA020080F020002D
:100F0000A84944390860A848008800F0100000286B
:100F100038D10846006848F60F710840A1494439A5
:100F2000086001F077F89F49443909684BF68F72E1
:100F300001EA02009E49098801F4805109B180F458
:100F400080509B49098801F4005109B180F4005098
:100F5000944944390860096848F6BF7201EA020002
:100F60009449097801F0100109B180F0100091490D
:100F7000097801F0200109B180F020008949443945
:100F8000086010BD87484438006884B204F08000CF
:100F9000D8B384484438006848F60F710840814946
:100FA0004439086001F036F87E49443909684BF647
:100FB0008F7201EA02007E49098800E0A6E001F490
:100FC000805109B180F480507949098801F40051B9
:100FD00009B180F40050734944390860096848F643
:100FE000BF7201EA02007349097801F0100109B1EA
:100FF00080F010006F49097801F0200109B180F0FC
:101000002000684944390860BBE7FFE704F400604A
:10101000D8B3644844380068C0F30E0048F68F71B6
:10102000084060494439086002F0A6FB5D49443934
:1010300009684BF68F7201EA02005D49098801F4E4
:10104000805109B180F480505949098801F4005158
:1010500009B180F40050534944390860096848F6E2
:10106000BF7201EA02005349097801F0100109B189
:1010700080F010004F49097801F0200109B180F09B
:1010800020004849443908607BE7FFE704F400404A
:1010900000287AD0434844380068C0F30E0048F670
:1010A0008F7108403F494439086001F03DFD3D49DA
:1010B000443909684BF68F7201EA02003C490988FD
:1010C00001F4805109B180F480503949098801F454
:1010D000005109B180F40050324944390860096870
:1010E00048F6BF7201EA02003249097801F01001A6
:1010F00009B180F010002F49097801F0200109B1F1
:1011000080F020002749443908603AE727480078F2
:10111000294901EB8000D0F8000C84B204F40040AF
:10112000C0B12248007801EB8000D0F8000CC0F379
:101130000E0048F68F7108401C4909781E4A02EBE0
:101140008101C1F8000C19490978491E1B4A52F85F
:101150002100804704F08000B8B114480078164997
:1011600001EB8000D0F8000C48F60F7108400F49E1
:101170000978114A02EB8101C1F8000C0B4909788A
:10118000491E0F4A52F8210080470648006880B285
:101190000549088000F4004000287FF482AE00BFBB
:1011A000EFE60000445C00408C090020700A00203B
:1011B000840A0020860A002000500040AC0900206C
:1011C000900900200B4A02EB8001D1F8001C01F4C9
:1011D000804169B102EB8001D1F8001C48F68F72A2
:1011E000114041F48041034B03EB8002C2F8001C24
:1011F00070470000005000400B4A02EB8001D1F81C
:10120000001C01F0400169B102EB8001D1F8001C23
:1012100048F68F72114041F04001034B03EB80020E
:10122000C2F8001C7047000000500040064A02EB64
:101230008001D1F8001C48F68F621140024B03EB8D
:101240008002C2F8001C70470050004070B5044690
:101250000025062C18D118480068007800F07F009F
:10126000012811D114480068407968B91248006813
:101270008078222801D1114D10E00F480068807855
:1012800021280BD10E4D09E00B480068007800F0D2
:101290007F00212802D1032C00D10A4D0DB9022074
:1012A00070BD0548006885610021034800684182DF
:1012B0000020A8470020F3E7740A0020211300084B
:1012C000F11200080513000810B504460249204633
:1012D00002F06EFB10BD00002C0A002010B5044681
:1012E0000249204602F064FB10BD0000240A0020E1
:1012F00010B504460249204602F05AFB10BD00001A
:101300003C0A0020014629B90120034A12681082D4
:10131000002070470148FCE7740A0020C80900203B
:1013200010B504460249204602F042FB10BD000001
:10133000340A002070B5054606480068C478042CBD
:1013400001DD002070BD044800EBC401284602F016
:101350002FFBF7E7740A0020440A00200246002908
:1013600001DD02207047002A01DD0220FAE700209B
:10137000F8E7000000B5024606480068007800F073
:101380007F00212804D10B2A02D100F077F800BD9C
:101390000220FCE7740A002010B500202A490968E1
:1013A000887229490968C8722848C079264909689D
:1013B0004872002002F020F84FF40071002002F083
:1013C00003F91021002002F0CDF81821002002F0CE
:1013D00041F85821002002F0A7F80020FFF726FF6F
:1013E0001B4890F82C10002002F046F8002002F074
:1013F00085F84FF4C061012002F0E6F89821012041
:1014000002F028F84021012002F036F84FF4405154
:10141000012002F057F84FF4C061022002F0D4F826
:101420004FF48C71022002F07FF84021022002F07C
:101430008BF82021022002F095F801200549086070
:10144000002001F0E1FF10BD740A00206E54000876
:10145000D0090020640A002003480068807A10B197
:101460000520024908607047740A0020640A0020C1
:101470000420014908607047640A0020034800689E
:10148000C17803480160002070470000740A002002
:10149000C80900207047704710B500F0B7FD002064
:1014A0000A490968887201F051FD00200849086066
:1014B0004FF43F4007490880084600880449091F47
:1014C000086000200449086010BD0000740A002074
:1014D000445C00407E0A0020640A002000B589B008
:1014E0000121042001F0B4FD0121082001F0C0FD1C
:1014F0004FF47070ADF8200018208DF82300032001
:101500008DF8220008A92D4800F088FC40F65F10F5
:10151000ADF818000020ADF81400ADF81A00ADF8D1
:10152000160005A9264802F069FE6020ADF8040007
:101530000120ADF806001820ADF80A000020ADF833
:101540000C0001A91E4802F0F5FC08211C4802F01D
:101550003DFD0120ADF806001820ADF80A0001A9F4
:10156000174802F03DFD0821154802F08BFD0120CF
:10157000ADF806001820ADF80A0001A9104802F0E5
:101580008FFD08210E4802F0DBFD0120ADF80600BA
:101590001820ADF80A0001A9094802F0DBFD082176
:1015A000074802F015FE0121054802F08DFC0121DB
:1015B000034802F098FC09B000BD0000000C014097
:1015C0000008004008B50121082001F051FD4FF44A
:1015D0004040ADF8000010208DF8030003208DF886
:1015E000020069460A4800F019FC0121082001F0B8
:1015F0003FFD4FF44050ADF8000004208DF803008B
:1016000003208DF802006946014800F007FC08BD80
:10161000000C014010B5FFF7D5FF00200949086014
:101620000949C1F8BC010A2003F0A4FBFFF756FFEB
:101630000120044908600449C1F8BC010A2003F0F4
:1016400099FB10BDB88121420080214221B102687E
:1016500042F00102026004E002684FF6FE731A4095
:101660000260704701684FF6FE7211400160002170
:10167000016041608160C1604B49884208D14A499C
:101680000839496841F00F01474A083A51608AE039
:1016900045491431884208D143490839496841F025
:1016A000F001414A083A51607DE03F4928318842C3
:1016B00008D13D490839496841F470613A4A083A0D
:1016C000516070E038493C31884208D136490839C8
:1016D000496841F47041344A083A516063E0324944
:1016E0005031884208D130490839496841F47021A5
:1016F0002D4A083A516056E02B496431884208D19E
:1017000029490839496841F47001274A083A51606B
:1017100049E025497831884208D123490839496888
:1017200041F07061204A083A51603CE01F4988420C
:1017300006D1011F096841F00F01021F116032E05C
:101740001A491431884208D11849091F096841F023
:10175000F001164A121F116025E014492831884211
:1017600008D11249091F096841F470610F4A121F1C
:10177000116018E00D493C31884208D10B49091F1E
:10178000096841F47041094A121F11600BE00749D2
:101790005031884207D10549091F096841F4702179
:1017A000024A121F116070470800024008040240FC
:1017B00010B50022026847F6F0739A430C6A8B68F2
:1017C00023430C6923434C6923438C692343CC692D
:1017D00023434C6A23438C6A23431A430260CB6839
:1017E00043600B6883604B68C36010BD2DE9F04710
:1017F0002848006800F110052E8826480068077AFE
:10180000D6B9042F18D12448007801280FD100211F
:101810002248006880B2801C214A42F81010302013
:101820002049088000BF00201B49087003E00727FB
:1018300010201C49088027E0AC88A64201D804206B
:1018400000E002200746B44200D93446A0B2A9689D
:1018500088478046002000F089FB8146A2B24946B5
:10186000404603F0A7F8A1B2002001F06DFE2888E1
:10187000001B28806888204468803020094908803F
:1018800000020949088000BF024909680F72BDE8DB
:10189000F0870000740A00206E0A0020505C0040AF
:1018A00000600040860A0020840A00202DE9F041F3
:1018B0002848006800F110042688A068C0B1BEB1B5
:1018C000A588B54200D93546A8B2A1688847074621
:1018D0002088401B2080608828446080002000F021
:1018E00035FB8046AAB24146384601F045F900BFB3
:1018F000208850B14FF44050174908800021084615
:1019000001F022FE3020154908802088A1888842F5
:1019100004DB03200F490968087218E020880028BA
:1019200004DD05200B490968087210E0208870B9B1
:10193000062008490968087200210948006880B239
:10194000801C084A42F81010302004490880BDE885
:10195000F0810000740A0020840A0020860A00201A
:10196000505C0040006000402DE9F84F9B48006843
:1019700045780027BA46062D1BD1984800680078A4
:1019800000F07F00002813D1944909688878012865
:1019900003D193490968CF690AE0022803D190492D
:1019A00009680F6A04E0032802D18D4909684F6A6B
:1019B00094E0002D64D189480068408800285FD1F8
:1019C00086480068C08802285AD184480068007997
:1019D000002855D181480068007800F07F0028B9C0
:1019E0007E480068808808B97E4F77E07B480068B1
:1019F000007800F07F00012810D178490968487903
:101A0000774909688A6900219047002866D17348A0
:101A10000068807A002861D0724F5FE06F480068EC
:101A2000007800F07F00022858D16C4800684079A7
:101A300000F00F0669480068407900F070096748B7
:101A40000068407900F0800038B1674901EB8600FA
:101A5000D0F8000C00F0300806E0634901EB860086
:101A6000D0F8000C00F4405860480078B04235D9F6
:101A7000B9F1000F32D1B8F1000F2FD0594F2DE03E
:101A8000082D07D155480068007800F07F0028BB7A
:101A9000574F23E00A2D21D150480068007800F00C
:101AA0007F0001281AD14D480068807AB0B14B48B8
:101AB0000068408890B949480068007970B9474883
:101AC0000068C088012809D1444909684879444917
:101AD00009688A690021904700B9464F57B13F48CD
:101AE0000068A0F812A03D48006887610020B84750
:101AF00000240FE0394A12685078394A1268116997
:101B000088470446032C05D1092034490968087226
:101B1000BDE8F88F31480068008A4FF6FF718842AF
:101B200004D109202D4909680872F1E7022C03D07D
:101B30002A480068008A20B90820284909680872E4
:101B4000E6E726480068007800F08000E0B323480C
:101B50000068C088009021480068008A0099884287
:101B600004D91E4900980968088223E01B480068D0
:101B7000008A1A490968C98888421BDA1748006830
:101B8000008A1749096891F82C10884203DA00206E
:101B9000194908700EE011480068008A1049096868
:101BA00091F82C1090FBF1F201FB120010B901200A
:101BB000114908700A48006890F82C10074800681E
:101BC0008182FFF713FE07E0FFE70320034909685E
:101BD000087200030949088000BF99E7740A0020D1
:101BE000780A0020013A000800500040CC0900208B
:101BF00085390008D53900086E0A0020840A0020C3
:101C00007047000010B50120064908704022982155
:101C1000054800F0B1FF4FF44051012001F052FCA3
:101C200010BD00008809002040100020002004E0C2
:101C30000021034A1154411CC8B24028F8DB704708
:101C40008010002010B5012000F084F810B10120B0
:101C500000F07AF810BD000010B54FF4806000F07D
:101C600079F808B324480068D0B12348001D006803
:101C700058B122480088401E00B22049088008461A
:101C80000088401E00B208800AE01C480088401C02
:101C900000B21A49088008460088401C00B208803B
:101CA0004FF4806000F050F84FF4006000F052F8FC
:101CB00008B31148001D0068C8B10F48006858B14A
:101CC0000E480088401C00B20C4908800846008875
:101CD000401C00B208800AE008480088401E00B29C
:101CE0000649088008460088401E00B208804FF46C
:101CF000006000F029F810BD288122420C04002069
:101D000010B5022000F026F810B1022000F01CF8F7
:101D100010BD10B5042000F01DF810B1042000F033
:101D200013F810BD10B5082000F014F810B1082009
:101D300000F00AF810BD10B5102000F00BF810B13B
:101D4000102000F001F810BD014908607047000044
:101D500014040140014600200022074B1B6803EADF
:101D60000102054B14331B680B4013B10AB101206B
:101D700000E00020704700000004014000212349DA
:101D80008279002A3AD00A46126803689A430B46C1
:101D90001A600A1D126803689A430B1D1A600279C3
:101DA00011440A6803681A430A60184A0832126824
:101DB00003689A43154B08331A601A1D12680368AA
:101DC0009A43124B0C331A604279102A0ED11A1F13
:101DD000126803681A430D4B08331A601A1D126803
:101DE00003681A43094B0C331A600DE00749427926
:101DF00011440A6803681A430A6005E00279114435
:101E00000A6803689A430A607047000000040140B2
:101E10000320014908607047640A00202DE9F04161
:101E2000024600250026002000230024002791F808
:101E300003C00CF00F0591F803C00CF0100CBCF1BE
:101E4000000F03D091F802C04CEA050591F800C0DC
:101E5000BCF1000F31D0146800202BE04FF0010CD2
:101E60000CFA00F3B1F800C00CEA03069E4220D140
:101E700083004FF00F0C0CFA03F7BC4305FA03FC88
:101E80004CEA040491F803C0BCF1280F06D14FF0CE
:101E9000010C0CFA00FCC2F814C00AE091F803C06F
:101EA000BCF1480F05D14FF0010C0CFA00FCC2F850
:101EB00010C0401C0828D1D31460B1F800C0BCF198
:101EC000FF0F34DD546800202EE000F1080C4FF0C5
:101ED000010808FA0CF3B1F800C00CEA03069E42B0
:101EE00021D183004FF00F0C0CFA03F7BC4305FA25
:101EF00003FC4CEA040491F803C0BCF1280F05D19F
:101F000000F1080C08FA0CF8C2F8148091F803C02C
:101F1000BCF1480F07D100F1080C4FF0010808FA96
:101F20000CF8C2F81080401C0828CED35460BDE8DD
:101F3000F0810246002093680B400BB1012000E0C5
:101F400000207047416170470161704701460548B4
:101F5000006880B200EBC100001D034A32F8100097
:101F600080B27047505C0040006000400146054868
:101F7000006880B200EBC100034A32F8100080B262
:101F800070470000505C00400060004010B502F057
:101F9000C3FD08B102F0E2FD10BD00001CB5002435
:101FA000174800F0DDFA00BF11E004EB44001449CB
:101FB00001EB4000016800918088ADF80400DDE984
:101FC000000100F08DF90F490855601CC4B2052CC2
:101FD000EBDB0C4800780B494978084309498978BC
:101FE00008430849C978084306490979084318B1E4
:101FF00001200549087002E00020034908701CBD5B
:10200000EC0F00201509002014090020704700BFC4
:10201000FEE7000010B518480068047A022C01D0D1
:10202000042C05D1FFF7E2FB13480068047A1CE09A
:10203000062C19D110480068407805280ED10E48AA
:102040000068007800F07F0040B90B490968C87843
:1020500001F0DAF909490968086A804708490968FE
:1020600088688047082400E00824034909680C7246
:1020700000F048FF10BD0000740A0020800A002014
:10208000780A002008B50121402000F0F1FF20204F
:10209000ADF8000010208DF8030003208DF8020039
:1020A00069460448FFF7BAFE20210248FFF74CFFBB
:1020B00008BD00000018014000B589B001210220D0
:1020C00000F0C6FF0121082000F0D2FF0120ADF88A
:1020D000200018208DF8230003208DF8220008A985
:1020E0001948FFF79BFE40F65F10ADF8180000207E
:1020F000ADF81400ADF81A00ADF8160005A91348A4
:1021000002F07CF86020ADF804000120ADF8060074
:102110000020ADF80C000120ADF806000020ADF85D
:102120000A0001A9094801F0BBFF0821074802F095
:1021300007F80121054801F0C7FE0121034801F01D
:10214000D2FE09B000BD0000000C014000040040B8
:1021500030B589B005460C460121022000F078FF19
:102160000121052000F084FF0121092000F080FFFB
:102170000220ADF8200018208DF8230003208DF8F0
:10218000220008A92A48FFF749FEC020ADF8200028
:1021900018208DF8230003208DF8220008A9254877
:1021A000FFF73CFEADF81850ADF814400020ADF834
:1021B0001A00ADF8160005A91F4802F01FF86020AC
:1021C000ADF804000120ADF806000020ADF80C00C9
:1021D0000120ADF806000020ADF80A0001A916485C
:1021E00001F0A8FE0821144801F0F0FE0120ADF82E
:1021F00006000020ADF80A0001A90F4801F0F0FE2A
:1022000008210D4801F03EFF0120ADF80600002036
:10221000ADF80A0001A9084801F09CFF0821064812
:1022200001F0D6FF0121044801F05DFE09B030BD88
:10223000000C014000080140000400400548817A7C
:1022400019B10521044A116002E00121024A11601E
:1022500070470000C0100020640A00203CB503460F
:10226000002020E0BDF8004000EB400531F815509B
:102270002C4424B2ADF80040BDF8024000EB40050C
:1022800001EB45056D882C4424B2ADF80240BDF841
:10229000044000EB400501EB4505AD882C4424B219
:1022A000ADF80440401C9042DCD3BDF90040B4FBC3
:1022B000F2F424B2ADF80040BDF90240B4FBF2F4F0
:1022C00024B2ADF80240BDF90440B4FBF2F424B2EC
:1022D000ADF80440009C1C60BDF804409C803CBDEF
:1022E00073B50024814DB5F90030002B01DB1D468C
:1022F00000E05D427D4EB6F90220002A01DB164661
:1023000000E05642B54240DB784DB5F90010002997
:1023100001DB0D4600E04D42744EB6F90400002882
:1023200001DB064600E04642B5422EDB7048B0F9BC
:1023300000007049B1F90010401A6F49B1F900105E
:10234000884214DD6D48B0F900006A49B1F9001007
:10235000401A6949B1F900104942884207DA00245D
:10236000634866490A68026089888180BBE000246E
:102370005F4862490A680260898881805F480099E5
:102380000160BDF804108180ADE0584DB5F9023010
:10239000002B01DB1D4600E05D42544EB6F90020E3
:1023A000002A01DB164600E05642B54240DB4F4DA5
:1023B000B5F90210002901DB0D4600E04D424B4EFD
:1023C000B6F90400002801DB064600E04642B542AB
:1023D0002EDB4748B0F902004649B1F90210401A15
:1023E0004549B1F90210884214DD4448B0F90200B1
:1023F0004049B1F90210401A3F49B1F9021049426F
:10240000884207DA00243A483C490A680260898811
:10241000818068E00024364838490A68026089886B
:102420008180364800990160BDF8041081805AE02F
:102430002E4DB5F90430002B01DB1D4600E05D4256
:102440002A4EB6F90020002A01DB164600E056426B
:10245000B54248DB254DB5F90410002901DB0D46D6
:1024600000E04D42214EB6F90200002801DB06468D
:1024700000E04642B54236DB1D4AB2F904201D4B4E
:10248000B3F90430D11A002901DB0A4600E04A42C0
:10249000194BB3F904309A4218DD184AB2F90420F6
:1024A000144BB3F90430D01A002801DB024600E0D7
:1024B0004242114BB3F904309A4207DD01240C4823
:1024C0000E490A680260898881800CE0002408486F
:1024D0000A490A6802608988818008480099016079
:1024E000BDF80410818020467CBD00002C0900202E
:1024F000380900201A090020320900203E09002076
:1025000003B5BDF8000038B9BDF8020020B9BDF828
:10251000040008B901200CBD0020FCE70FB40CB585
:10252000BDF81010BDF81820891A09B2ADF80010D6
:10253000BDF81210BDF81A20891A09B2ADF80210C0
:10254000BDF81410BDF81C20891A09B2ADF80410AA
:1025500000990160BDF80410818002B05DF814FBA1
:10256000F0B587B005460027002405264EF67840D2
:10257000A74908804880888041F28830A5490880B2
:1025800048808880A448016805918088ADF81800CB
:10259000DDE90501FFF7B4FFB8B19F48D0F8061098
:1025A00005914089ADF81800DDE90501FFF7A8FFA6
:1025B00058B19948C1680591008AADF81800DDE965
:1025C0000501FFF79DFF00B101270024A8E000F0FE
:1025D0002DF9BCB9B7B1904890490A680260898862
:1025E00081808E490A68C0F80620898841818B491C
:1025F0000A68C2608988018288490A68C0F8122086
:102600008988C18284480146CA68C0F81220098AB4
:10261000C1820146D1F80620C26049890182014683
:102620000A68C0F80620898841817C490A680260EE
:10263000898881800422014605A8FFF70FFE04EB7C
:10264000440005EB400005990160BDF81810818039
:102650006F48B0F9000004EB440135F911108842CD
:1026600005DA04EB440035F8100069490880684831
:10267000B0F9020004EB440105EB4101B1F902108D
:10268000884206DA04EB440005EB400040886049CC
:1026900048805F48B0F9040004EB440105EB4101B8
:1026A000B1F90410884206DA04EB440005EB40005F
:1026B0008088574988805748B0F9000004EB4401EE
:1026C00035F91110884205DD04EB440035F810009F
:1026D000504908804F48B0F9020004EB440105EB73
:1026E0004101B1F90210884206DD04EB440005EB1C
:1026F00040004088474948804648B0F9040004EB50
:10270000440105EB4101B1F90410884206DD04EBF8
:10271000440005EB400080883E498880601CC4B2BC
:10272000052CFFF654AF04230022294605A800F02B
:102730002DFC3B4805990160BDF818108180354893
:102740008088ADF800003348016803918088ADF8B7
:1027500010002F48016801918088ADF8080005A895
:10276000DDE90223FFF7DAFE2E4805990160BDF886
:10277000181081802648B0F900002949B1F90010ED
:10278000401A2749B1F90010224AB2F90020891AEB
:10279000884207DD1E48B0F900002149B1F9001058
:1027A000401A06E01E48B0F900001A49B1F90010BD
:1027B000401A90FBF6F000B21B4908801448B0F9AB
:1027C00002001749B1F90210401A1549B1F9021077
:1027D000104AB2F90220891A884207DD0C48B0F984
:1027E00002000F49B1F90210401A06E00C48B0F996
:1027F00002000849B1F90210401A90FBF6F000B24D
:10280000094948804FF47A70888007B0F0BD000015
:1028100020090020260900200A1000204409002079
:102820001A0900202C0900203209002010B5FFF7FA
:10283000ADFB0B480068FDF7A0FE00B20949088017
:1028400009480068FDF799FE00B20649488007482C
:102850000068FDF792FE00B20249888010BD0000BA
:10286000E808002044090020EC080020F0080020BF
:1028700000BFFEE770B504460E4615463146206897
:10288000FDF7B8FE01D2304600E0206820602946FE
:102890002068FDF7A5FE01D2284600E020682060F0
:1028A00070BD000010B51248007830B101280BD07F
:1028B000022810D0032818D114E002F07FFC02F0A7
:1028C000D7FB00F075FC11E002F078FC02F0D0FBC1
:1028D00000F06EFC0AE002F071FC02F0C9FB00F0AF
:1028E00067FC03E000F05CF900E000BF00BF10BD32
:1028F0005C09002010B54FF480511348FFF719FB15
:10290000012806D11148007840F001000F490870F5
:1029100005E00E48007800F0FE000C4908704FF406
:1029200000510948FFF705FB012806D10748007848
:1029300040F002000549087005E00448007800F006
:10294000FD000249087010BD000C01405C09002028
:102950007047704710B54FF4A06000F039F810BD13
:1029600070B5002100230F22C47804B3154C2468ED
:1029700004F4E064C4F5E064210AC1F10403CA4030
:10298000447804FA03F184781440214309010E4C81
:102990000678A155047804F01F050124AC400578A1
:1029A0006D11AD0005F1E025C5F8004109E004789E
:1029B00004F01F050124AC40044D0678761145F85B
:1029C000264070BD0CED00E000E400E080E100E096
:1029D00002490143024A1160704700000000FA05F5
:1029E0000CED00E070B502264A480068447849487A
:1029F0000068007800F07F0000284AD1092C03D13C
:102A000001F076F8064665E0052C14D141480068CF
:102A1000C0787F280BDC3F480068807838B93D4893
:102A20000068808818B93B480068807A08B108259A
:102A30006BE000264EE0032C14D136480068C078C5
:102A400001280DD133480068808848B931480068B2
:102A5000407A00F0200018B101F06EF8064639E027
:102A6000022637E0012C35D12A480068C0780128B9
:102A70000DD128480068808848B926480068407A07
:102A800000F0200018B100F0CFFE064622E002263A
:102A900020E020480068007800F07F00012805D180
:102AA0000B2C17D101F0BCF8064613E0194800685A
:102AB000007800F07F0002280BD1012C03D100F038
:102AC000B3FE064606E0032C04D101F049F80646A1
:102AD00000E002264EB1E0B20F4A12685169884701
:102AE0000646032E01D109250FE00EB108250CE0A2
:102AF000062500210948006880B2801C084A42F877
:102B0000101030200749088000BF024909680D7283
:102B100070BD0000740A0020780A0020505C00405C
:102B200000600040860A002010B511480068047A51
:102B3000032C01D0052C05D1FEF7B8FE0C48006827
:102B4000047A0EE0072C05D10A490968C868804755
:102B5000082406E0022C01D0042C01D1082400E056
:102B60000824034909680C7200F0CCF910BD00007C
:102B7000740A0020780A0020F0B5561C7510074E24
:102B800006EB41042B4605E034F8047B20F8017B7A
:102B9000401C5B1E002BF7D1F0BD00000060004020
:102BA00010B502F01FF92848B0F90000FDF7CFFC7E
:102BB0000446264801682046FDF73AFB2449086090
:102BC0002448016822480068FDF738FB2249086064
:102BD000084601681D480068FDF7D8FA1B490860DF
:102BE00000201B4908601C4908601C48B0F900001F
:102BF000FDF7ADFC04461A4801682046FDF718FBB6
:102C0000134908601348016811480068FDF716FB76
:102C1000114908600846016811480068FDF7B6FAD6
:102C20000F49086000200A4908600B4908600D4AF6
:102C30000D490648FFF71EFE0A4A0B490848FFF7F0
:102C400019FE02F06BFA10BD5E0900207409002025
:102C50007C09002064090020700900206009002020
:102C600078090020002019C5002019450021124ACA
:102C70001180017AC27941EA022109B20F4A11801A
:102C80001146B1F90010B1F5166F02DB40F65F1185
:102C900002E00A49B1F90010084A11801146B1F961
:102CA0000010002901DA002102E00449B1F9001006
:102CB000024A118070470000120400200C09002015
:102CC0000021124A1180017AC27941EA022109B237
:102CD0000F4A11801146B1F9001040F62E129142B0
:102CE00001DD114602E00A49B1F90010084A1180DD
:102CF0001146B1F90010074A914201DA114602E08B
:102D00000349B1F90010024A118070470E040020F7
:102D100084090020D2F6FFFF0021124A1180017AB7
:102D2000C27941EA022109B20F4A11801146B1F974
:102D3000001040F62E12914201DD114602E00A49D0
:102D4000B1F90010084A11801146B1F90010074A84
:102D5000914201DA114602E00349B1F90010024A3A
:102D6000118070471004002086090020D2F6FFFF72
:102D70000021334A1180017AC27941EA022109B265
:102D8000304A11801146B1F90010B1F5166F02DB1F
:102D900040F65F1102E02B49B1F90010294A118079
:102DA0001146B1F90010002901DA002102E025499D
:102DB000B1F90010234A1180817A427A41EA022156
:102DC00009B2214A11801146B1F90010B1F5166F10
:102DD00002DB40F65F1102E01B49B1F900101A4A0C
:102DE00011801146B1F90010002901DA002102E03A
:102DF0001549B1F90010144A1180017BC27A41EAE9
:102E0000022109B2114A11801146B1F90010B1F541
:102E1000166F02DB40F65F1102E00C49B1F90010B9
:102E20000A4A11801146B1F90010002901DA002187
:102E300002E00649B1F90010044A11807047000011
:102E4000140400200E09002010090020120900209F
:102E50002DE9F04105460C4600260027B046E1B2B8
:102E60004FF6FF722846FDF7FDFF0646601C285C02
:102E7000295D40EA0127B74201D1012000E000208E
:102E800080464046BDE8F08130B5034601EB410085
:102E900003EB4000B0F9044029E0914208DA02EB6C
:102EA000420003EB4000B0F90400A04200DB521ED8
:102EB00002EB420003EB4000808801EB410503EB8D
:102EC0004505A880914208DA01EB410003EB400080
:102ED000B0F90400A04200DC491C01EB410003EB07
:102EE0004000808802EB420503EB4505A880914233
:102EF000D3DB20B201EB410503EB4505A880084672
:102F000030BD704710B50D4890F82C10002000F02F
:102F1000B3FA0B480068007A082805D14002094935
:102F2000088010200849088005480068007A0928B0
:102F300001D1012010BD0020FCE70000D0090020D5
:102F4000740A0020840A0020860A002010B501209F
:102F500001F060FB01240B48046000200A4908804E
:102F600008460088074908600020091D08604FF4E2
:102F7000E0500549088008460088024908600020A2
:102F800010BD0000405C00407E0A00202DE9FF4398
:102F900080460C4615461F460026BD4214DA3A46C6
:102FA00029462046FFF770FF8146A9F101032A4612
:102FB00021466846FFF7EAFF3B4609F10102214638
:102FC0006846FFF7E3FF00BF05EB450004EB400058
:102FD000016802918088ADF80C0000260EE006EB37
:102FE00046000C4901EB400006EB460104EB4101B1
:102FF0000A68026089888180701CC6B2052EEEDBEB
:103000000298C8F80000BDF80C00A8F80400BDE85C
:10301000FF8300002210002001460020034A506870
:1030200020F4404008435060704700000010024008
:1030300029B1064A52690243044B5A6104E0034A2B
:1030400052698243014B5A617047000000100240F0
:1030500029B1064AD2690243044BDA6104E0034A0B
:10306000D2698243014BDA617047000000100240D0
:1030700029B1064A92690243044B9A6104E0034A6B
:1030800092698243014B9A61704700000010024030
:1030900030B500210022002400232D4D6D6805F07D
:1030A0000C0121B1042905D0082923D105E0294DBF
:1030B000056022E0274D05601FE0254D6D6805F491
:1030C0007012234D6D6805F48034022505EB9242A1
:1030D0001CB9214D554305600BE01D4D6D6805F48D
:1030E00000351DB11C4D5543056002E0194D554397
:1030F000056002E0174D056000BF00BF144D6D680C
:1031000005F0F0010909154D6B5C0568DD4045606F
:103110000F4D6D6805F4E061090A104D6B5C456860
:10312000DD4085600A4D6D6805F46051C90A0B4D9C
:103130006B5C4568DD40C560054D6D6805F4404138
:10314000890B074D6B5CC568B5FBF3F5056130BDB8
:103150000010024000127A0000093D0034040020F3
:10316000440400200149086070470000D800424232
:1031700008B501214020FFF77BFF4FF44040ADF838
:10318000000014208DF8030003208DF8020069462A
:103190000448FEF743FE0120034908600349C1F8D3
:1031A000BC0108BD00180140B801234200002342C1
:1031B00010B5642001F0DEFD01200C4908600C49C7
:1031C000C1F8BC01642001F0D5FD0020074908606A
:1031D0000749C1F8BC01642001F0CCFD012003497E
:1031E00008600349C1F8BC0110BD0000B88121424C
:1031F0000080214270B50546072D01D02748057093
:1032000026480078082841D2DFE800F0040A1016AA
:10321000212E414200F046F80620204908703BE08C
:1032200000F040F804201D49087035E002201B49D9
:103230004870032008702FE018484078401E174956
:1032400048700846407808B90420087024E0144803
:10325000006884B244F010041148046005200F494E
:1032600008700A20487017E00C484078401E0B494F
:1032700048700846407840B90948006884B224F094
:103280001004074804600620087005E000BF00BF76
:1032900006200249087000BF00BF70BD690A002007
:1032A000405C004010B50748006884B224F0040474
:1032B00004480460FEF7C2FF4FF43F400149086034
:1032C00010BD0000405C00407047000010B50121B7
:1032D0002F48FEF72EFE2F490968097860F3000198
:1032E0002C480068017002212948FEF722FE294976
:1032F0000968097860F341012648006801700421DB
:103300002348FEF716FE23490968097860F3820115
:1033100020480068017008211D48FEF70AFE1D497B
:103320000968097860F3C3011A4800680170102128
:103330001748FEF7FEFD17490968097860F3041184
:1033400014480068017020211148FEF7F2FD114970
:103350000968097860F345110E4800680170402142
:103360000B48FEF7E6FD0B490968097860F3861102
:1033700008480068017080210548FEF7DAFD05491C
:103380000968097860F3C71102480068017010BD30
:10339000001C01405009002008B501218020FFF7E2
:1033A00067FEFF20ADF8000004208DF80300032025
:1033B0008DF8020069460248FEF730FD08BD0000A6
:1033C000001C01402DE9F04105460C46002600276F
:1033D0002078401DC1B24FF6FF722846FDF742FD2E
:1033E00006463746390A2078401D29542078801D2A
:1033F0002F54BDE8F08100004FF6F8710140014AFA
:1034000011607047505C004030B501460E4B1A7891
:10341000002011E003060D4C04EB9353D3F8003C5D
:1034200048F68F742340C4B223430406074D05EBCE
:103430009454C4F8003C401C9042EBD341F080030C
:10344000034C236030BD0000CC0900200050004038
:103450004C5C004010B54A105300054A126892B205
:1034600002EBC002121D034C44F8123010BD0000E4
:10347000505C00400060004010B502460F480068F4
:1034800080B200EBC200801D0D4C04EB40033E29CE
:103490000BDD481101F01F040CB9441EA0B24FF41B
:1034A000004444EA80241C6007E0481001F0010455
:1034B0000CB1441CA0B284021C6010BD505C0040E2
:1034C0000060004010B50C4C04EB8003D3F8003CC6
:1034D0004BF68F7403EA040201F480530BB182F4BB
:1034E000805201F400530BB182F40052024C04EB01
:1034F0008003C3F8002C10BD00500040094B03EBC3
:103500008002D2F8002C4BF68F7302EA030181F49B
:10351000805181F40051034B03EB8002C2F8001C80
:10352000704700000050004010B54A105200044B94
:103530001B689BB203EBC003024C44F8132010BD80
:10354000505C004000600040044A126892B202EBF6
:10355000C002921C024B43F812107047505C0040AE
:103560000060004010B50C4C04EB8003D3F8003C25
:1035700048F6BF7403EA040201F010030BB182F0B5
:10358000100201F020030BB182F02002024C04EB88
:103590008003C3F8002C10BD00500040094B03EB22
:1035A0008002D2F8002C48F6BF7302EA030181F0D2
:1035B000100181F02001034B03EB8002C2F8001CD4
:1035C000704700000050004010B5074B03EB80022D
:1035D000D2F8002C48F68F131A400A43024C04EB31
:1035E0008003C3F8002C10BD0050004010B50848FF
:1035F0000088B0F57A5F04D10021064800F0F9FD9B
:1036000005E00548008881B2024800F0F2FD10BDD7
:1036100012040020000400400C09002010B51248DC
:103620000088B0F57A5F0CD10021104800F0E3FD6E
:1036300000210E4800F0D9FD00210C4800F0D7FD14
:1036400011E00B48008881B2084800F0D4FD094819
:10365000008881B2054800F0C8FD0748008881B2A3
:10366000024800F0C4FD10BD140400200004004016
:103670000E090020100900201209002010B500F0EA
:1036800001F810BD0CB5002001900090334800688F
:1036900040F480303149086000BF3048006800F4D1
:1036A000003000900198401C0190009818B90198D2
:1036B000B0F5A06FF1D12948006800F4003010B1D6
:1036C0000120009001E0002000900098012843D1E3
:1036D0002348006840F0100021490860084600684F
:1036E00020F0030008600846006840F0020008600F
:1036F0001A484068194948600846406848600846CA
:10370000406840F4806048600846406820F47C10BF
:1037100048600846406840F4E81048600846006881
:1037200040F08070086000BF0C48006800F0007036
:103730000028F9D00948406820F003000749486094
:103740000846406840F00200486000BF03484068F7
:1037500000F00C000828F9D10CBD00000010024058
:103760000020024010B50020FFF7FCFC0121C80535
:10377000FFF76EFC10BD000008B52848006880B255
:10378000001D274931F8100080B201EB4000009085
:1037900024480068007A09282FD000980078214931
:1037A000096808700098401C0090009800781D4936
:1037B000096848700098401C00900098801C009098
:1037C000009931F8020B0091FDF746FB1549096895
:1037D00048800098801C0090009931F8020B0091FD
:1037E000FDF73AFB0F49096888800098801C00901B
:1037F000009800880B490968C880012009490968B8
:10380000087208480068C08810B9FFF7EBF801E0BB
:10381000FEF7AAF8FFF776FB08BD0000505C0040F9
:1038200000600040740A00202DE9F047504800680D
:10383000007800F07F08B8F1000F0AD14C4800680A
:10384000407A00F0DF004A49096848720020BDE86C
:10385000F087B8F1020F7DD145480068408818B95B
:1038600043480068007908B10220F0E7DFF80491CE
:103870003F480068477927F080052C463C4800689F
:10388000407900F0800038B13B4901EB8400D0F86A
:10389000000C00F0300606E0374901EB8400D0F858
:1038A000000C00F4405699F80000A84204D91EB15B
:1038B0002F480068807A08B90220C8E707F0800026
:1038C00080B12D4901EB8400D0F8000C00F03000ED
:1038D000102843D1E0B2FDF78FFCE0B23021FFF7B2
:1038E00041FE3BE0244901EB8400D0F8000C00F4D9
:1038F0004050B0F5805F31D1C4B9204A92F82C1005
:10390000E0B2FFF7B9FD1C4A02EB8401D1F8001CBC
:103910004BF68F7201EA020080F4805080F4005070
:10392000154A02EB8401C1F8000C17E0E0B2FDF784
:1039300049FC114A02EB8401D1F8001C4BF68F724E
:1039400001EA020080F4805080F400500A4A02EB41
:10395000840100E008E0C1F8000C00BF08490968D4
:1039600048698047002072E700BF02206FE700002F
:10397000740A0020CC09002000500040D00900202B
:10398000800A002010B504462CB9012006490968B8
:103990000882002010BD0549096808688047024870
:1039A00000680A30F6E70000740A0020800A002050
:1039B00010B5024606480068438A32B98888C01AA2
:1039C000034C24682082002010BD08681844FBE7DF
:1039D000740A002010B504462CB901200649096874
:1039E0000882002010BD05490968886880470248A0
:1039F00000680C30F6E70000740A0020800A0020FE
:103A000010B504462CB90220354909680882002007
:103A100010BD00203349088031480068007800F06C
:103A20007F00E0B92E490968487A00F0200129B1E9
:103A30002C49097841F002012A4A117000F0400136
:103A400031B12849097801F0FE01264A117005E0DC
:103A50002449097841F00101224A11703AE02048D6
:103A60000068007800F07F00012801D11D48CFE7F1
:103A70001B480068007800F07F00022828D1184A0F
:103A80001268517901F00F0001F080027AB1164BF3
:103A900003EB8002D2F8002C02F03002102A16D17B
:103AA000104A127842F001020E4B1A700FE00E4BD2
:103AB00003EB8002D2F8002C02F44052B2F5805F92
:103AC00005D1084A127842F00102064B1A7001E053
:103AD00000209DE70549096808698047014897E784
:103AE000740A00206C0A002000500040800A002068
:103AF00010B50E480068C0780D494978884213DC3B
:103B00000A480068807878B908480068808858B901
:103B100006480068C078054909688872054909683F
:103B200048688047002010BD0220FCE7740A00208E
:103B3000CC090020800A002010B507480068407AB0
:103B400040F0200004490968487204490968C869BE
:103B50008047002010BD0000740A0020800A002069
:103B60002DE9F0412A480068467926F080073C4656
:103B700027480068407900F0800038B1254901EB02
:103B80008400D0F8000C00F0300506E0214901EB7C
:103B90008400D0F8000C00F440551F480078A04283
:103BA00008D91B480068408820B91DB11848006832
:103BB000807A10B90220BDE8F08106F0800080B163
:103BC000144A02EB8401D1F8001C48F6BF7201EAE6
:103BD000020080F010000F4A02EB8401C1F8000CD3
:103BE00010E00C4A02EB8401D1F8001C4BF68F72F6
:103BF00001EA020080F48050064A02EB8401C1F819
:103C0000000C00BF05490968886980470020D2E799
:103C1000740A002000500040CC090020800A0020D7
:103C200010B5174B1B68D978154B1B685879154B85
:103C30001B689A699047044611480068807AE8B189
:103C40003CB90F480068007918B90D4800688078C1
:103C500008B1022010BD8CB90B490968C8688047BB
:103C600007480068407906490968C8720448006836
:103C7000C0780349096808730020EBE70220E9E7F0
:103C8000740A0020780A0020800A002010B5084835
:103C9000006884B244F0080405480460006884B2F7
:103CA00044F0040402480460FEF7B2F810BD0000BE
:103CB000405C0040042808D14FF0E021096941F040
:103CC00004014FF0E022116107E04FF0E0210969A3
:103CD00021F004014FF0E0221161704770470000AD
:103CE00010B51348006840F001001149086008460B
:103CF0004068104908400E494860084600680E496F
:103D000008400B4908600846006820F480200860DD
:103D10000846406820F4FE0048604FF41F008860A9
:103D2000FFF7ACFC4FF000600449086010BD0000D4
:103D3000001002400000FFF8FFFFF6FE08ED00E073
:103D400010B50121044800F0DAF818B10121024849
:103D500000F0C6F810BD0000002C014010B5012194
:103D6000880700F0CCF8002861D00121880700F016
:103D7000B7F82F480078401C2D49087001202D49C4
:103D800008702B480078282805DB00202849087097
:103D900001202949087029480088401C27490880CB
:103DA00027480088401C2649088026480088401C77
:103DB0002449088024480088401C234908800120A9
:103DC0002249087022480088401C21490880214867
:103DD0000088401C1F4908801D480088C82802DB55
:103DE000C8201B49088015480088B0F57A5F03DBBE
:103DF0004FF47A501149088011480088B0F57A5F75
:103E000003DB4FF47A500E4908800E480088B0F565
:103E10007A5F03DB4FF47A500A4908800A48008829
:103E2000B0F57A5F03DB4FF47A500749088010BD84
:103E30001C0400200B0400200A0400200E040020B3
:103E40001004002012040020140400201604002096
:103E5000180400201A04002010B50121044800F0C5
:103E60004EF818B10121024800F03AF810BD0000E8
:103E70000004004010B50121044800F040F818B1DA
:103E80000121024800F02CF810BD0000000800409D
:103E900010B50121044800F032F818B101210248A0
:103EA00000F01EF810BD0000000C004010B501210C
:103EB000044800F024F818B10121024800F010F87D
:103EC00010BD00000034014021B1028842F08002A0
:103ED000028004E002884FF67F731A400280704728
:103EE000CA430282704721B1028842F00102028077
:103EF00004E002884FF6FE731A400280704730B526
:103F00000246002000230024158A05EA0103958952
:103F100005EA010413B10CB1012000E0002030BD1E
:103F20001AB183890B43838102E083898B438381A8
:103F30007047000070B5002400220023058C4FF666
:103F4000FE7635400584028C8388048B4FF68F758E
:103F50002C40B51E2C400D882C43751E2A400D891F
:103F60002A434D882A43144DA8420BD0134DA84232
:103F700008D0134DA84205D0124DA84202D0124DD0
:103F8000A84213D14FF6F7752A404D892A434FF6C0
:103F9000FB752A408D882A434FF6FF652B404FF66C
:103FA000FF552B408D892B43CD892B438380048380
:103FB000CD888586028470BD002C0140003401400C
:103FC0000040014000440140004801400A460021F1
:103FD000018B4FF6F77319401143018370470000BE
:103FE00070B5002400220023058C4FF6EF76354093
:103FF0000584028C8388048B48F6FF752C404FF6AD
:10400000FF452C400D884FF6FF7606EA05252C4328
:104010004FF6DF752A400D8906EA05152A434D88BB
:1040200006EA05152A43154DA84202D0144DA842B0
:104030001DD14FF67F752A404D894FF6FF7606EA6F
:1040400005152A434FF6BF752A408D8806EA0515E7
:104050002A434FF6FF352B404FF2FF752B408D89D9
:1040600006EA85052B43CD8906EA85052B43838027
:104070000483CD880587028470BD0000002C0140B8
:10408000003401400A460021018B4FF2FF731940B2
:104090004FF6FF7303EA02231943018370470000C0
:1040A00070B5002400220023058C4FF6FF663540D2
:1040B0000584028C8388848B4FF68F752C404FF6D5
:1040C000FC752C400D882C434FF6FF552A400D8976
:1040D0004FF6FF7606EA05252A434D8806EA0525B0
:1040E0002A43154DA84202D0144DA8421DD14FF2CB
:1040F000FF752A404D894FF6FF7606EA05252A43CB
:104100004FF6FF352A408D8806EA05252A434EF6EC
:10411000FF752B404DF6FF752B408D8906EA05157E
:104120002B43CD8906EA05152B4383808483CD88F4
:104130008587028470BD0000002C014000340140DE
:104140000A460021818B4FF6F77319401143818392
:104150007047000070B5002200230024058C4EF645
:10416000FF7635400584038C8488828B48F6FF7582
:104170002A404FF6FF452A400D884FF6FF7606EAA3
:1041800005252A434DF6FF752B400D8906EA0535B6
:104190002B434D8806EA05352B430B4DA84202D030
:1041A0000A4DA84208D14BF6FF752C408D894FF679
:1041B000FF7606EA85152C4384808283CD88A0F89B
:1041C0004050038470BD0000002C014000340140C9
:1041D0000A460021818B4FF2FF7319404FF6FF739F
:1041E00003EA022319438183704781867047018760
:1041F000704781877047A0F84010704700220288FE
:104200001D4B98420ED01D4B98420BD0B0F1804F01
:1042100008D01B4B984205D01A4B984202D01A4B3B
:10422000984204D14FF68F731A404B881A43174BAC
:10423000984207D0164B984204D04FF6FF431A40DD
:10424000CB881A4302808B8883850B8803850A4BB1
:1042500098420BD0094B984208D00E4B984205D09B
:104260000D4B984202D00D4B984201D10B7A038638
:104270000123838270470000002C0140003401407C
:104280000004004000080040000C00400010004006
:10429000001400400040014000440140004801403B
:1042A0001FB501210846FEF7D3FE5A20ADF80800DD
:1042B00040F28F10ADF804000020ADF80A00ADF810
:1042C000060001A94FF08040FFF798FF0122114638
:1042D0009007FFF725FE01218807FFF704FE1C2049
:1042E0008DF8000001208DF801008DF802008DF896
:1042F00003006846FEF734FB1FBD000010B508211F
:104300000E4800F0AEF810B10C4800F073F940F21E
:1043100025510A4800F0B2F870B140F22551074823
:1043200000F084F8054800F065F905490870084672
:104330000178044800F0DFFE10BD0000004C004092
:104340001D040020800F002010B508210E4800F049
:1043500088F810B10C4800F04DF940F225510A4898
:1043600000F08CF870B140F22551074800F05EF87B
:10437000054800F03FF905490870084601780448EF
:1043800000F0B9FE10BD0000005000401E040020E7
:10439000940F002010B508210E4800F062F810B10B
:1043A0000C4800F027F940F225510A4800F066F861
:1043B00070B140F22551074800F038F8054800F088
:1043C00019F90549087008460178044800F093FE81
:1043D00010BD0000003801401F040020A80F00207D
:1043E00010B508210E4800F03CF810B10C4800F060
:1043F00001F940F225510A4800F040F870B140F24E
:104400002551074800F012F8054800F0F3F8054977
:10441000087008460178044800F06DFE10BD0000E9
:10442000004400401F040020A80F002010B5002207
:10443000002340F66A14A14200D100BF0A120124F1
:104440009440A3B2DC43048010BD21B1828942F4C0
:104450000052828104E082894DF6FF731A40828106
:10446000704702460020B1F5007F00D100BF1388DD
:104470000B400BB1012000E00020704770B50246F0
:10448000002400230025002040F66A16B14200D126
:1044900000BFC1F3421501F01F03012606FA03F322
:1044A000012D02D19689334006E0022D02D1168AF1
:1044B000334001E0968A33400C12012606FA04F4D8
:1044C0001688344013B10CB1012000E0002070BD0B
:1044D000F0B50346002400260025002040F66A17A8
:1044E000B94200D100BF1846C1F3421401F01F06C3
:1044F000012707FA06F5012C01D10C3004E0022C4B
:1045000001D1103000E014301AB107682F43076062
:1045100002E00768AF430760F0BD00002DE9F047F7
:1045200086B005460E460024A24600BFA1460027DD
:10453000B08900B100BF2F462C8A4CF6FF700440B2
:10454000F08804432C82AC894EF6F3100440B08806
:1045500031890843718908430443AC81AC8A4FF622
:10456000FF400440B0890443AC8201A8FEF790FDEF
:104570001F48874202D1DDF810A001E0DDF80CA051
:10458000A88900F4004040B10AEBCA0000EB0A1011
:1045900031684900B0FBF1F807E00AEBCA0000EB14
:1045A0000A1031688900B0FBF1F86420B8FBF0F024
:1045B00004012009642101FB1089A88900F400404E
:1045C00040B1322000EBC900B0FBF1F000F0070071
:1045D000044308E0322000EB09106421B0FBF1F045
:1045E00000F00F0004432C8106B0BDE8F087000006
:1045F0000038014001468888C0F308007047C1F3C5
:1046000008028280704710B54FF48020FDF79CFBB4
:1046100010BD000010B5044624B140210448FDF748
:1046200091FC03E040210248FDF78EFC10BD000024
:104630000018014008B501214020FEF719FD402077
:10464000ADF8000003208DF8020010208DF8030063
:1046500069460248FDF7E2FB08BD00000018014072
:1046600002460023402900D94021002304E00448E9
:10467000C05C1070521C5B1C8B42F8D3084670471C
:104680004010002010B50848084908600220096859
:104690000872074807490860074808490860054943
:1046A00009680868804710BDC0100020740A002007
:1046B000D0090020780A0020000A0020800A00208B
:1046C0000EB54FF48020FDF73FFB4FF480200090A3
:1046D00008208DF8050001208DF806006846FDF7DA
:1046E0004DFB14208DF8080002208DF809000120F0
:1046F0008DF80A008DF80B0002A8FEF731F92A2088
:104700008DF8080001208DF8090002A8FEF728F9AD
:104710000EBD000010B537480068374908800846CC
:10472000008800F4806035490988084030B14FF6B0
:10473000FF30304908603249486880472E48008879
:1047400000F400502D490988084018B14DF6FF705B
:10475000284908602848008800F4805027490988C3
:10476000084030B14EF6FF70224908600020FEF785
:1047700041FD2148008800F4006020490988084074
:1047800060B12048007810B1FFF780FA02E0022003
:10479000FEF730FD4FF2FF7016490860164800889A
:1047A00000F4007015490988084040B14FF6FF50E9
:1047B0001049086014480078401C134908700E48DE
:1047C000008800F480700D490988084030B14FF628
:1047D000FF60084908600720FEF70CFD06480088C6
:1047E00000F4004005490988084008B1FCF756FB71
:1047F00010BD0000445C00408C0900207E0A0020AF
:10480000D0090020680A00208E09002010B5FFF7AB
:1048100081FF10BD10B5044601210420FEF728FCDD
:104820003CB11048006880B220F002000D490860D9
:1048300016E00C48006880B240F0020009490860A8
:104840000948006820F47F2007490860084600688E
:1048500040F44C30086089140348001FFDF772FBD8
:1048600010BD0000405C00400408014070B50546E2
:104870000C46A2B24FF48C71284600F09BF8402100
:104880000220FEF761FE0220FEF788FE204670BD82
:1048900010B50022344B1B881AB20B785B1C0B70CE
:1048A000C2F307240B781B1DC4540B785B1C0B70E0
:1048B0000B781B1DC2542C4B5B881AB20B785B1C07
:1048C0000B70C2F307240B781B1DC4540B785B1CC0
:1048D0000B700B781B1DC254234B9B881AB20B78AC
:1048E0005B1C0B70C2F307240B781B1DC4540B78A0
:1048F0005B1C0B700B781B1DC2541B4BDB881AB260
:104900000B785B1C0B70C2F307240B781B1DC4547F
:104910000B785B1C0B700B781B1DC254124B1B8950
:104920001AB20B785B1C0B70C2F307240B781B1DAB
:10493000C4540B785B1C0B700B781B1DC2540A4BC4
:104940005B891AB20B785B1C0B70C2F307240B78DF
:104950001B1DC4540B785B1C0B700B781B1DC254C1
:104960000B78037110BD0000C80E00200022064B1A
:104970001B681A780B785B1C0B700B781B1DC254DC
:104980000B780371704700005009002010B5002219
:10499000064B1A780023054C23700B785B1C0B70B8
:1049A0000B781B1DC2540B78037110BD1409002035
:1049B00000BFFEE7F0B5144604F1010C4FEA6C07A6
:1049C000DFF824C00CEB41033D460AE00678401CAA
:1049D00090F800C046EA0C2223F8022B9B1C401CD6
:1049E0006D1E002DF2D1F0BD00600040014A024969
:1049F00000F013B8C14D0008880A002002E008C882
:104A0000121F08C1002AFAD170477047002001E048
:104A100001C1121F002AFBD170472DE9F041164653
:104A20000F460446002503E03946B047641C6D1C60
:104A300020780028F8D12846BDE8F08110B5322250
:104A40000749084800F02FFB32220549064800F0CC
:104A50002AFB32220249054800F025FB10BD000068
:104A60004C0F0020800F0020940F0020A80F002082
:104A700010B5002405E00948005D09490855601C8F
:104A8000C4B20B2CF7DB07480449891C0A68026092
:104A900049684160FCF708F910BD0000BC0F002018
:104AA000D40E00208A08002010B5002405E0094833
:104AB000005D09490855601CC4B20B2CF7DB0748A0
:104AC0000449891C0A68026049684160FCF716F9CC
:104AD00010BD0000C70F0020FC0E0020920800202F
:104AE00010B5002405E00948005D09490855601C1F
:104AF000C4B20B2CF7DB07480449891C0A68026022
:104B000049684160FCF750F910BD0000D20F002049
:104B1000240F00209A08002070B500240C4800F0F3
:104B2000CBFA08B9012500E000250A4800F0C4FAD4
:104B300008B9012000E000200543074800F0BCFA56
:104B400008B9012000E0002045EA0004204670BDBD
:104B5000800F0020940F0020A80F002070B5684837
:104B6000807C012802D1664800F096FA36E00025E4
:104B7000634800F0AAFA04466248007880B96248A7
:104B800040786149087008464470007855280FD174
:104B90000846407851280BD102205A49087007E096
:104BA000584801780078401C564A107056484454C2
:104BB000544800780B2802D1FFF75AFF01255348CB
:104BC00004701DB94F4800780B2806D300204D49CA
:104BD00008700B214C48FBF7CEFA00BF484800F0A4
:104BE0006BFA0028C3D04A48807C012802D148488B
:104BF00000F052FA38E00025454800F066FA044615
:104C00004448007880B944484078434908700846D1
:104C10004470007855280FD10846407853280BD1AE
:104C200002203C49087007E03A4801780078401CAF
:104C3000384A107038484454364800780B2802D15E
:104C4000FFF732FF0125354804701DB9314800785F
:104C50000B2808D300202F4908702F48002101603D
:104C600041600181817200BF294800F025FA0028C7
:104C7000C1D02B48807C012802D1294800F00CFAD1
:104C800038E00025264800F020FA04462548007840
:104C900080B9254840782449087008464470007857
:104CA00055280FD10846407853280BD102201D49C2
:104CB000087007E01B4801780078401C194A107002
:104CC00019484454174800780B2802D1FFF708FF11
:104CD0000125164804701DB9124800780B2808D326
:104CE00000201049087010480021016041600181D6
:104CF000817200BF0A4800F0DFF90028C1D070BD02
:104D0000800F002084080020BC0F002087080020AE
:104D1000940F002085080020C70F0020880800207D
:104D2000A80F002086080020D20F0020890800204C
:104D300010B56FF00400FEF7BDFF0A4800680A498D
:104D4000B0FBF1F0094908700846007800EB40011B
:104D5000C1EBC0104FF6FF7101EAC00004490880A2
:104D600010BD00002004002000127A004808002036
:104D70004A0800200146114A12884A434FF0E023B6
:104D80005A6100229A611A46126942F001021A61C0
:104D900000BF4FF0E022106900F001021AB100F4E8
:104DA0008032002AF5D04FF0E022126922F0010291
:104DB0004FF0E0231A6100229A6170474A080020F0
:104DC00070B504460D46E1B20548FFF718FC00BF78
:104DD00040210348FFF745FB0028F9D0204670BD6D
:104DE000003801400E480088B0F57A5F03D10020FA
:104DF0000C49088004E00C48B0F90000094908801B
:104E00000A480088B0F57A5F03D10020084908807D
:104E100004E00848B0F90000054908807047000028
:104E20000E0400205E0900208409002010040020E8
:104E30006009002086090020A2B0402112A8FBF7DB
:104E40009AF9402102A8FBF796F9002400250020DA
:104E50000190FDF77FFDFFF723FAFFF769FFFFF7EA
:104E6000EDFD4FF4E13000F043FAFDF70BF9FDF7EB
:104E700023F9002140F65F10FDF76AF9FCF7CAFB41
:104E8000FEF78AFAFBF7DEFCFEF772F9FFF7D2FBBA
:104E9000FFF716FCFEF766FCFFF7F4FB0020654900
:104EA0000870FFF7B7FB0020FFF7B4FC4FF47A70EF
:104EB000FFF760FF0120FFF7ADFC5FA0FFF796FD55
:104EC000B6E0FDF76BF86348007820B10020614937
:104ED0000870FBF70DFE6048007810B100205E49B5
:104EE00008705448007801287ED100205B49088072
:104EF0005B48006808B9012000E0002058490860BC
:104F000002200190402112A8FFF7AAFB0020494986
:104F100008709DF84C00411D12A8FDF799FF054649
:104F20009DF84940002D55D09DF84E00B52826D15A
:104F300000208DF84E008DF808008DF80940022001
:104F40008DF80A0000208DF80D00B5208DF80E00B8
:104F500001A902A8FFF79CFCFEF7B8F901A902A875
:104F6000FFF704FD01A902A8FFF710FD01A902A89F
:104F7000FEF728FA402102A8FFF778FC2AE09DF806
:104F80004E00AA2806D100208DF84E0012A8FDF789
:104F900097FE1FE09DF84E00AB2806D100208DF84B
:104FA0004E0012A8FDF7B8FE14E09DF84E00AC28A4
:104FB00006D100208DF84E0012A8FDF757FE09E03B
:104FC0009DF84E00AD2805D100208DF84E0012A8A6
:104FD000FDF7CEFEFDF78EFCFEF708FBFEF71EFB8D
:104FE00020480078012800E005E004D100201D4998
:104FF0000870FDF757FC19480088B0F57A7F17DB79
:105000000020194908800880FDF774FCFDF74AFC70
:1050100000211648FFF7EFF800211448FFF7E5F8E4
:1050200000211248FFF7E3F800211048FFF7E1F8EC
:1050300047E700008809002020536B7977616C6B8B
:10504000657220697320737461727465642E2E0D0D
:105050000A0000000B0400200A0400201A040020AB
:10506000940123421604002084090020000400401B
:1050700007480088C8280AD100200549088005484B
:10508000006808B9012000E000200249086070476C
:105090001804002094012342016881600168C16006
:1050A00000218174704701608B1843608160C1608A
:1050B00002820023837470470146D1E902029042C4
:1050C00001D1012070470020FCE701460022D1E910
:1050D0000230984201D100207047CB68581CC8604C
:1050E0001A784B68C868984203D10B8AC868C01AFE
:1050F000C8601046F0E70A468368591C43688B4233
:1051000001D1038AC91AC3688B4203D083681A701D
:10511000816001E0012383747047000010B52248CC
:105120000068FBF72AFA00B220490880204800688E
:10513000FBF723FA00B21F4908801C48B0F90000B1
:1051400000280ADB18211C48FFF753F8174800888D
:1051500081B21948FFF74FF80AE01448008840422E
:1051600081B21548FFF745F818211348FFF743F8B7
:105170001048B0F9000000280ADB18210E48FFF79C
:1051800034F80C48008881B20B48FFF730F80AE089
:1051900008480088404281B20748FFF726F81821E6
:1051A0000548FFF724F810BD74090020800900208D
:1051B00078090020820900200008004010B5002175
:1051C0000348FFF716F800210148FFF714F810BD57
:1051D0000008004010B586B004460121C804FDF760
:1051E00037FF01211020FDF743FF4FF40060ADF8B9
:1051F000140004208DF8170005A91748FCF70EFECF
:1052000034208DF8000002208DF801008DF8020096
:1052100001208DF803006846FDF7A2FB01940020F1
:10522000ADF80800ADF80A00ADF80C00ADF81000BC
:105230000420ADF80E0001A90848FFF76FF901221C
:1052400040F225510548FFF743F901210348FFF7D4
:10525000FCF806B010BD000000100140004C0040FA
:1052600010B586B0044601210805FDF7F1FE0121C5
:105270001020FDF7FDFE01212020FDF7F9FE04209E
:10528000ADF814008DF8170005A91748FCF7C6FD06
:1052900035208DF8000002208DF8010003208DF8E4
:1052A000020001208DF803006846FDF759FB0194C8
:1052B0000020ADF80800ADF80A00ADF80C00ADF81C
:1052C00010000420ADF80E0001A90848FFF726F9E8
:1052D000012240F225510548FFF7FAF80121034861
:1052E000FFF7B3F806B010BD0014014000500040B5
:1052F00010B50446204600F00BF8204600F05CF89C
:105300002046FFF767FF2046FFF7AAFF10BD000009
:1053100010B586B0044601218803FDF7A9FE0121DE
:105320000420FDF7A5FE4FF40070ADF81400032033
:105330008DF8160018208DF8170005A91C48FCF7F9
:105340006DFD4FF48060ADF8140004208DF8170057
:1053500005A91748FCF762FD25208DF80000022002
:105360008DF8010000208DF8020001208DF8030067
:105370006846FDF7F5FA01940020ADF80800ADF895
:105380000A00ADF80C00ADF810000C20ADF80E00CE
:1053900001A90848FFF7C2F8012240F2255105484B
:1053A000FFF796F801210348FFF74FF806B010BD4C
:1053B000000801400038014010B586B004460121C4
:1053C0004804FDF755FE01212020FDF751FE042081
:1053D000ADF8140003208DF8160018208DF8170082
:1053E00005A91C48FCF71AFD0820ADF8140004209C
:1053F0008DF8170005A91748FCF710FD26208DF839
:10540000000002208DF8010001208DF802008DF8C7
:1054100003006846FDF7A4FA01940020ADF80800E7
:10542000ADF80A00ADF80C00ADF810000C20ADF896
:105430000E0001A90848FFF771F8012240F225513A
:105440000548FFF745F801210348FEF7FEFF06B0C7
:1054500010BD00000008014000440040120100029D
:10546000000000401A051B5100030102030109025C
:105470002900010100C032090400000203000000FD
:105480000921100100012221000705820340000AC2
:105490000705010340000A058C0901A10109031554
:1054A000002600FF750895408102090415002600BA
:1054B000FF750895409102C00403090412034D00D2
:1054C0004900530052004F0042004F0054001203A5
:1054D000500055004E004300540055005200450056
:1054E0001203320030003100340030003700310048
:1054F0003100000014550008000000208C0A000054
:10550000B8070008485900088C0A0020540A000017
:105510000C4A000800FF0000002110422063308484
:1055200040A550C660E770088129914AA16BB18CF3
:10553000C1ADD1CEE1EFF13112100273325222B57A
:10554000529442F772D662399318837BB35AA3BD43
:10555000D39CC3FFF3DEE36224433420040114E64A
:1055600064C774A44485546AA54BB528850995EE93
:10557000E5CFF5ACC58DD55336722611163006D75A
:1055800076F6669556B4465BB77AA719973887DFE3
:10559000F7FEE79DD7BCC7C448E5588668A77840A2
:1055A00008611802282338CCC9EDD98EE9AFF94833
:1055B0008969990AA92BB9F55AD44AB77A966A71BA
:1055C0001A500A333A122AFDDBDCCBBFFB9EEB7983
:1055D0009B588B3BBB1AABA66C877CE44CC55C220A
:1055E0002C033C600C411CAEED8FFDECCDCDDD2AD3
:1055F000AD0BBD688D499D977EB66ED55EF44E139A
:105600003E322E511E700E9FFFBEEFDDDFFCCF1B22
:10561000BF3AAF599F00FF00788F8891A981CAB126
:10562000EBA10CD12DC14EF16FE18010A100C23071
:10563000E3200450254046706760B9839893FBA32C
:10564000DAB33DC31CD37FE35EF3B1029012F322C1
:10565000D2323542145277625672EAB5CBA5A8957C
:1056600089856EF54FE52CD50DC5E234C324A01411
:1056700081046674476424540544DBA7FAB799870C
:10568000B8975FE77EF71DC73CD7D326F236910661
:10569000B01657667676154634564CD96DC90EF954
:1056A0002FE9C899E9898AB9ABA9445865480678B1
:1056B0002768C018E1088238A3287DCB5CDB3FEB6C
:1056C0001EFBF98BD89BBBAB9ABB754A545A376A01
:1056D000167AF10AD01AB32A923A2EFD0FED6CDD3C
:1056E0004DCDAABD8BADE89DC98D267C076C645C51
:1056F000454CA23C832CE01CC10C1FEF3EFF5DCF4C
:105700007CDF9BAFBABFD98FF89F176E367E554EA0
:10571000745E932EB23E200DD10EF01E00C181406A
:1057200001C0804104610C2108E118A11C011A305C
:10573000011638013660012E70012F6000FF00C095
:10574000C101C30302C2C60607C705C5C404CC0C09
:105750000DCD0FCFCE0E0ACACB0BC90908C8D81879
:1057600019D91BDBDA1A1EDEDF1FDD1D1CDC14D489
:10577000D515D71716D6D21213D311D1D010F030B9
:1057800031F133F3F23236F6F737F53534F43CFCC9
:10579000FD3DFF3F3EFEFA3A3BFB39F9F83828E879
:1057A000E929EB2B2AEAEE2E2FEF2DEDEC2CE42449
:1057B00025E527E7E62622E2E323E12120E0A060B9
:1057C00061A163A3A26266A6A767A56564A46CAC89
:1057D000AD6DAF6F6EAEAA6A6BAB69A9A86878B8F9
:1057E000B979BB7B7ABABE7E7FBF7DBDBC7CB47409
:1057F00075B577B7B67672B2B373B17170B05090B9
:1058000091519353529296565797559594549C5C48
:105810005D9D5F9F9E5E5A9A9B5B995958988848F8
:1058200049894B8B8A4A4E8E8F4F8D4D4C8C4484C8
:1058300085458747468682424383418180500740A1
:10584000000102030001000410102700016004A2FF
:105850004A0420112B600604060708090C61100C8D
:1058600005FF0204060848040DFF48040DFF480424
:105870000DFC48045D2F042C05A80A0020370450B5
:10588000183BDF4F8D976EFFBFC3D32B6519E2EE38
:105890003F613255302AA923087233105137000571
:1058A0008DAAAAAA000110042300E1022378EC02C9
:1058B000E3881302011636474C09005254082D4361
:1058C0000500051A9A99193E6A121902612C2009DD
:1058D000532900082D1C000808E1040215051821B1
:1058E0001C2DC005100E0301000099140008991327
:1058F0000008950812970410064D12000875101242
:105900005D1412DD0C12C910433513305240700380
:105910001859145812714810065C54000812C81225
:105920006E081229D01297081221081280182D0D26
:105930000612B8082D250652BC2852CE0852E0386F
:085940003D30060521CF0000F7
:0400000508000131BD
:00000001FF
